:020000040800F2
:10000000481A002045010008692C00081921000841
:10001000652C00085D0F0008692D00080000000035
:10002000000000000000000000000000712C00082B
:10003000610F0008000000006D2C0008752C0008FE
:100040005F0100085F0100085F0100085F01000810
:100050005F0100085F0100085F0100085F01000800
:100060005F0100085F0100085F0100085F010008F0
:100070005F0100085F0100085F0100085F010008E0
:100080005F0100085F0100085F0100085F010008D0
:100090005F0100085F0100085F0100085F010008C0
:1000A0005F0100085F0100085F0100085F010008B0
:1000B0007D2C00085F0100085F0100085F01000857
:1000C0005F0100085F0100085F0100085F01000890
:1000D0005F0100085F0100085F0100085F01000880
:1000E0005F0100085F0100085F0100085F01000870
:1000F0005F0100085F0100085F0100085F01000860
:100100005F0100085F0100085F0100085F0100084F
:100110005F0100085F0100085F0100085F0100083F
:100120005F0100085F0100085F0100085F0100082F
:10013000DFF80CD000F0A8FE004800471138000896
:10014000481A00200648804706480047FEE7FEE7B9
:10015000FEE7FEE7FEE7FEE7FEE7FEE7FEE7FEE777
:10016000792C0008310100082DE9F0410024061B1C
:10017000254671F1000605DA01240027D0EB0700BF
:1001800067EB0101161E73F1000605DA0027D2EBBA
:100190000702012567EB030300F0ACFC86460E4620
:1001A00017469C46AC4204D00025D0EB050E65EB0B
:1001B000010624B10020D2EB000760EB030C70466F
:1001C00031463A466346BDE8F081D2B201E000F81C
:1001D000012B491EFBD270470022F6E710B51346EB
:1001E0000A4604461946FFF7F0FF204610BD421CA0
:1001F00010F8011B0029FBD1801A704710B50022AE
:1002000000E0521C835C8C5CA34201D1002BF8D12E
:10021000D8B2E1B2401A10BD2DE9FF4F1C4681B0A3
:100220000021D4E9016791464FF0FF358A468846A0
:10023000A1696D1C02988847216A83468847002877
:10024000F6D1BBF1FF3F0CD026F4C066002F1ADDBB
:10025000700615D5BBF12B0F0AD0BBF12D0F0FD1B6
:1002600004E04FF0FF3005B0BDE8F08F46F4806643
:10027000A1696D1C029888477F1E8346002F02DD0E
:10028000BBF1300F03D0B9F1000F2AD025E0A169EE
:100290006D1C46F400767F1E029888478346002F27
:1002A00005DDBBF1780F06D0BBF1580F03D0B9F1D3
:1002B000000F10D011E0B9F1000F02D0B9F1100F0A
:1002C0000BD1A1696D1C26F400767F1E0298884729
:1002D0008346102000E0082081464FEAE970009034
:1002E00017E00A20F8E74346AAFB092803FB098028
:1002F000DDF800C07F1E0AFB0C0112EB0B0A41EB7C
:10030000EB78A16946F4007605F10105029888476B
:100310008346002F06DD4946584600F04DFC5FEA53
:10032000000BE0D5E16902988847B00502D46FF070
:10033000010098E7F00718D1700610D570055146F6
:1003400005D50023D1EB030163EB080200E0424630
:100350002068031D23600068C0E9001205E02068E2
:10036000011D21600068C0E900A828467BE72DE94F
:10037000FF5F1D464FF0FF3BD5E9014691465F46C2
:100380004FF00008A9697F1C01988847296A8246B6
:1003900088470028F6D1BAF1FF3F0CD024F4C0649E
:1003A000002E19DD600614D5BAF12B0F09D0BAF171
:1003B0002D0F0ED103E0584604B0BDE8F09F44F481
:1003C0008064A9697F1C01988847761E8246002EAA
:1003D00002DDBAF1300F03D0B9F1000F26D032E0C0
:1003E000A969761E44F400747F1C019888478246F0
:1003F000002E05DDBAF1780F06D0BAF1580F03D000
:10040000B9F1000F10D01EE0B9F1000F02D0B9F120
:10041000100F18D1A969761E24F400747F1C01986E
:1004200088478246102002E0082000E00A2081462A
:1004300009E008FB0908A969761E44F400747F1CD2
:10044000019888478246002E05DD4946504600F057
:10045000B3FB0028EDDAE96901988847A00502D4CA
:100460006FF00100A8E7E00725D1600613D560050D
:1004700002D5C8F1000000E0404629680A1D2A6044
:100480000968220501D5087015E0220701D508800A
:1004900011E008600FE02868011D2960006821054F
:1004A00002D580F8008006E0210702D5A0F8008080
:1004B00001E0C0F8008038467EE700002DE9FF4FDC
:1004C000087883B09946FF2805D0491C2D2804D010
:1004D0000024002008E000200BE00124F9E700EBF5
:1004E000800003EB4000491C0B78FF2BF7D104B1CF
:1004F000404200230293147819461D462D2C01D04A
:100500002B2C04D1521C2D2C13D000240294AA466B
:100510001478FF2C0FD00A25A3FB057801FB058179
:100520004FF0000C03FB0C11521CE3194AEB0101C4
:10053000EEE70124EAE7814453EA010002D019F50D
:10054000C87F06DA03980021C0E9001107B0BDE8B2
:10055000F08F0025AE4E2F46DFF8B882184600F027
:1005600056FCCDE90001B9F1000002DAC9F100043E
:1005700000E004460023A74A1AEB030B42EB045A9F
:1005800012E0E00707D02A4633463846414600F0DD
:10059000B5FB074688462A4633461046194600F002
:1005A000ADFB05460E466410002CEAD1DDE90001E2
:1005B000B9F1000F5A46534606DA00F0D6F93A462A
:1005C000434600F0D2F905E000F098FB3A46434676
:1005D00000F094FB029A0AB181F00041039AC2E94B
:1005E0000001B3E72DE9FF4F1F468DB0D7E9014663
:1005F0004FF0FF382E2045464FF000090B90B969A7
:100600006D1C0E988847396A824688470028F6D1C3
:10061000BAF1FF3F0AD024F4D064002E11DDBAF104
:100620002B0F08D0BAF12D0F0BD102E0404611B0CC
:100630008DE744F48064B9696D1C0E988847824642
:10064000761E6946600501D52D2000E02B208DF82F
:10065000000001F1010B0DF1200809E0B9696D1CE2
:100660000E98884782460F9844F40074761E056001
:10067000002E02DDBAF1300FF0D00B998A453ED141
:1006800044F0800406E00F99681CA9F1010944F4C4
:1006900000740860B9696D1C761E0E988847824602
:1006A0003028F0D02BE00B998A4505D1200603D4E1
:1006B00044F08004761E18E0504604F0ADFA08B30A
:1006C0000DF11302761EAAF1300044F40074934534
:1006D00006D20BF8010B200607D5A9F1010003E0B3
:1006E000200602D409F101008146A00502D50F9928
:1006F000681C0860B9696D1C0E9888478246002EF8
:10070000D1DC53E0002E51DDBAF1650F02D0BAF111
:10071000450F4BD1A00549D5B9696D1C24F440742F
:10072000761E0E9888478246002E0CDD2B2804D0BA
:10073000BAF12D0F07D144F48074B9696D1C0E987D
:1007400088478246761EE00501D52D2100E02B2149
:1007500008F8011BCDF82C8021E00DF12901761E4F
:1007600044F4007488450CD2AAF1300010F0FF0068
:1007700088F8000002D10B99884509D908F10108D1
:1007800006E0E00501D5244801E042F20F70814601
:10079000B9696D1C0E98884782460F980560002E37
:1007A00004DD504604F038FA0028D6D1F9690E98D5
:1007B0008847FF208BF8000088F800000020069092
:1007C00007904B466A4608A906A8FFF777FEA005E2
:1007D00002D46FF001002AE714F0240F0AD0E007DA
:1007E00014D1DDE906123868031D3B600068C0E9DA
:1007F00000120BE0DDE9060100F04AF90146E007CE
:1008000004D13868021D3A600068016028460EE78E
:10081000000014400000F03FF1D8FFFF2DE9FE4F2B
:10082000804681EA0300C00F0C46009021F0004191
:1008300023F00045B8EB0200A94105D2404621460D
:1008400090461C460B46024623F00040104347D01A
:10085000270DC7F30A00C3F30A510290401A019012
:1008600040286BDAC3F3130040F4801B00989246D3
:1008700020B10023D2EB030A63EB0B0B019859461E
:10088000C0F14002504600F066F906460D4650465B
:100890005946019A00F07EF910EB080061410024EE
:1008A00087EA115284EAE7731A4340D0009A62B390
:1008B000019A012A4FEA075215DC001B61EB020185
:1008C0004FF0004202EA0752CDE90042001C41F518
:1008D000801132462B4600F0C3F903B0BDE8F08F1B
:1008E00040462146F9E7001B61EB0201001C41F57F
:1008F000801300185B412018A2F5001747EB030195
:1009000040EAD570B6196D4111E06D084FEA360620
:1009100045EAC0754FEA0752001B61EB0201001C5B
:1009200041F5801149084FEA300000195141324623
:100930002B4603B0BDE8F04F00F083B900980122C8
:1009400040000023D0EB020263EBE07300982146E5
:100950004FEAE074B8EB000061EB0401E9E783F0D3
:1009600000435BE781F0004158E72DE9F04D81EA53
:10097000030404F0004B21F0004514464FF0000A38
:1009800023F0004150EA050220D054EA01021DD0B4
:10099000C5F30A570246C5F31303C1F31300C1F3AD
:1009A0000A5640F4801543F48013A7EB0608101B89
:1009B000D64608F2FD3873EB050002D308F10108B2
:1009C00001E092185B41B8F1000F03DA0020014604
:1009D000BDE8F08D00204FF48011064684460EE0FD
:1009E000171B73EB050705D3121B63EB05030643C7
:1009F0004CEA010C49084FEA300092185B4150EA7A
:100A00000107EDD152EA030012D082EA040083EA22
:100A10000501084305D0101BAB4106D2012200237B
:100A200006E000224FF0004302E06FF00102531095
:100A30001AEB06004CEB085110EB0A0041EB0B01DE
:100A4000BDE8F04D00F0FDB80EB5C10F80EAE070D2
:100A50000844CA07002140F233438DE80E000A46DD
:100A60000B4600F0FDF803B000BD00F0004230F08E
:100A700000400AD0C10D01F56071C0F3160042EAD2
:100A80000151C208400711437047002001467047DA
:100A900001F0004330B421F0004150EA010206D0D9
:100AA0000A0DA2F56072C1F31301002A02DC30BC0A
:100AB00000207047440F44EAC104C100E01830BC74
:100AC00000EBC25000F086B830B50B46014600205E
:100AD0002022012409E021FA02F59D4205D303FA00
:100AE00002F5491B04FA02F52844151EA2F1010281
:100AF000F1DC30BD2DE9F05F0546002092469B46B3
:100B000088460646814640241BE028464146474623
:100B1000224600F02FF853465A46C01A914110D38E
:100B200011461846224600F016F82D1A67EB010808
:100B30004F4622460120002100F00DF817EB000976
:100B40004E41201EA4F10104DFDC484631462A460E
:100B50004346BDE8F09F202A04DB203A00FA02F168
:100B6000002070479140C2F1200320FA03F319439B
:100B700090407047202A04DB203A21FA02F000213D
:100B8000704721FA02F3D040C2F12002914008439D
:100B900019467047202A06DBCB17203A41FA02F0AB
:100BA00043EAE07306E041FA02F3D040C2F12002CA
:100BB00091400843194670473A2800D2303820F057
:100BC0002002412A01D3A2F13700884201D34FF01D
:100BD000FF3070470029A8BF7047401C490008BF7C
:100BE00020F00100704710B4B0FA80FC00FA0CF05D
:100BF00050EA010404BF10BC704749B1CCF1200495
:100C000021FA04F411FA0CF118BF01212143084321
:100C1000A3EB0C01CB1D4FEA00614FEA102042BF4D
:100C2000002010BC704700EBC35010440029A4BF43
:100C300010BC7047401C490008BF20F0010010BCE8
:100C4000704710B5141E73F1000408DA401C41F11E
:100C5000000192185B411A4301D120F0010010BD40
:100C60002DE9F04D92469B4611B1B1FA81F202E0B6
:100C7000B0FA80F220329046FFF76DFF04460F462F
:100C800040EA0A0041EA0B0153465A46084313D092
:100C9000114653EA010019D0C8F140025046FFF74F
:100CA00069FF05460E46504659464246FFF753FF38
:100CB000084305D0012004E020463946BDE8F08D08
:100CC0000020054346EAE0762C4337430A98630543
:100CD000E40AA0EB08000022FD0A44EA47540A3067
:100CE00002D500200146E9E7010510196941DDE957
:100CF000084500196941BDE8F04DA2E72DE9FE4F16
:100D000081EA030404F0004421F0004100944FF014
:100D1000000B23F0004350EA01045ED052EA0304C2
:100D20005BD0C3F30A54C1F30A552C44A4F2F33444
:100D30000194A0FB0254C1F3130141F48011C3F3E9
:100D4000130343F4801301FB024400FB034E840AA7
:100D5000970A44EA815447EA8357A4FB076802953F
:100D60008D0A05FB07854FEA932C04FB0C542705DD
:100D7000029D4FEA065847EA1637B5EB08056EEBB9
:100D8000070C870E920E47EA811742EA8312A7FBEF
:100D90000201B6EB0B0164EB00042B0D43EA0C33AC
:100DA0005E1844EB1C50DA465146E7FB0201C5F3DE
:100DB00013044FEA0B3343EA14534FEA0432019C05
:100DC00043EA0603A4F10C040294009CCDE900B4AC
:100DD000FFF746FF03B0BDE8F08F00200146F9E7BA
:100DE00070B521F0004303430CD0C1F30A55002431
:100DF000D5EB040564EB0403D617AD1AB34102DB4F
:100E00000020014670BD201841EB025170BD0EB5A7
:100E100040F2334202920022CDE900221346FFF74E
:100E20001FFF03B000BDC1F30A52C1F3130140F22A
:100E3000FF3341F480119A4202DA002001467047E4
:100E400040F233439A42A2F2334202DC5242FFF7AD
:100E500091BEFFF780BE000030B5041E71F10004A2
:100E600004DB4FF00044404264EB0101141E73F1B7
:100E7000000405DB1C464FF00043524263EB0403C1
:100E8000994208BF904230BD1CB5094800900948FE
:100E900001900546009C06E0E06840F0010394E8FC
:100EA000070098471034AC42F6D3FFF745F900002D
:100EB00024660008446600082DE9F04D00231A4618
:100EC0001B1A8A4103DB00200146BDE8F08DC1F307
:100ED0000A52C1F3130141F480154FF0000BD10702
:100EE00002D100186D41521E0027044640F2FF1146
:100EF000384601EB620A3E468046024600204FF427
:100F00008011FFF737FEC2197141BB1846EB010093
:100F1000B4EB030C75EB000C04D3E41A65EB00058D
:100F200017460E46241908F101006D418046342809
:100F3000E3DDF91946EB0600091BA84103D24FF087
:100F4000FF32134601E0002213461BEB070046EB7D
:100F50000A51BDE8F04DFFF774BE0000FEE7000047
:100F600070470000EFF3108072B600BFFEE700008C
:100F7000B0B5044600F00AF9054640F23800C2F266
:100F800000000078611C18BF044400BF00F0FEF8A8
:100F9000401BA042FAD3B0BD2DE9F04F82B00E68DD
:100FA000002E00F0E980A0F1804241F6004540F2B9
:100FB0000043A2F58432C4F201050624C4F2010301
:100FC0004FEAB227A84208BF05244FF0000E4FF0A9
:100FD00001080F254FF0000A4FF0000B052F38BF16
:100FE0004FEAB224009408E00E680AF1010A36FACA
:100FF0000AF20EF1040E00F0BF8008FA0AFC16EAAD
:101000000C09F1D04E684FF6FF72C1F21002964201
:1010100012DC122E56D8DFE806F0350B4D49555537
:10102000555555555555555555555545510000BFC4
:10103000D1F80CB046E000BF4FF6FF72C1F22102BA
:1010400096420FDC0022C1F2110296421AD0002211
:10105000C1F21202964215D00022C1F2210296423C
:1010600010D02FE00022C1F2220296420AD00022C4
:10107000C1F23102964205D00022C1F232029642FC
:1010800020D100BF8A684AB1012A14BFC0F814C039
:10109000C0F810C04FF0080B14E000BF4FF0040B75
:1010A00010E000BFCA6802F1040B0BE04FF0000B28
:1010B00008E000BFCA6802F1080B03E0CA6802F149
:1010C0000C0B00BF02467446B9F5807F24BF043282
:1010D000203C166805FA04F726EA07070BFA04F61F
:1010E00037431760CA79D2067FF57EAF41F2180701
:1010F000C4F202073A684FF6084542F001023A602E
:101100003A68CFF6FF7502F001020192019A2AF0C7
:1011100003021A440F2457590EF00C06B440A7439B
:10112000009C04FA06F6374357514E6840F20C44CF
:10113000F2029A6854BF22EA090242EA0902C4F2A2
:1011400001049A602268B70254BF22EA090242EA07
:10115000090222605A68B70354BF22EA090242EA30
:1011600009025A600F251A68F70354BF22EA0902E0
:1011700042EA09021A6037E702B0BDE8F08F0000CA
:101180008068084018BF01207047000041F24460A9
:10119000C2F2000000687047002804BF01207047B9
:1011A000F0B581B0044690F83D0028B9002084F8DD
:1011B0003C00204600F050F9242084F83D002068CF
:1011C000016821F001010160016841F40041016002
:1011D000016821F40041016000F008FB636848F2F7
:1011E000A16CC0F2010C40F60011C0F23D01634554
:1011F0003CBF48F28041C0F21E01884202D2012069
:1012000001B0F0BD4DF68361C4F21B31A0FB0112A9
:101210002168970CD1F804E04FF496762EF03F0544
:1012200045EA92454D60774348F638160D6AC0F29C
:101230004106A7FB067625F03F07634538BF960CAD
:10124000721C3A430A62CA6948F2A0664CF6FF77FC
:10125000C0F20106B34222EA07020BD801385B0054
:10126000B0FBF3F001306FF31F30042898BF042067
:101270001BE000BFA768013857B119277B43B0FBBB
:10128000F3F001306FF31F3070B100F5804007E0DC
:1012900003EB4303B0FBF3F001306FF31F3018B1E1
:1012A00000F5004001E000BF01201043C86108685C
:1012B000D4E9072320F0C000104318430860886871
:1012C00048F2FF3204F10C0790438CCF18431043CF
:1012D000A6698860C86820F0FF0038433043C860C2
:1012E000086840F00100086000202021206484F894
:1012F0003D10206384F83E0001B0F0BD2DE9F043BD
:1013000083B0994616460F460446FFF73FFF94F810
:101310003D10202924D10546206800BF8169890736
:101320001AD5FFF733FF411B20681A29F6D38169CC
:101330008907F3D500202021206384F83D1084F82C
:101340003E00216C41F02001216484F83C00022021
:1013500003B0BDE8F08300BF94F83C10012903D12D
:10136000022003B0BDE8F083012284F83C2003682A
:10137000DDE90B180A9ADB0703D1036843F0010388
:101380000360036823F400630360212084F83D00B8
:10139000402084F83E000020206462626185608DF8
:1013A000394620850020CFF6FF70E06220463246A5
:1013B0004B46CDE9008500F0B1FE18B1012003B025
:1013C000BDE8F083208D98B9204641462A4600F0BA
:1013D00009FF88B3206C0428F0D12068016841F42B
:1013E00000710160012003B0BDE8F0830004EBD080
:1013F000204641462A4601F0A5F80028EAD1616A54
:101400002268084610F8013B1361238D6062581E64
:101410002085678D013F678557697F07E6D50704FB
:10142000E4D048781061881C6062981E2085618D28
:1014300001396185DAE700BF2068016841F4007175
:101440000160202084F83D00002084F83E0084F8EC
:101450003C0003B0BDE8F08310B586B0016845F2EA
:101460000040C4F2000081424FF00001CDE90411B8
:10147000CDE9021102D006B010BD00BF41F2180440
:10148000C4F20204216800F5384041F008012160EF
:10149000216801F0080101910199C02102911221F6
:1014A00003910321059102A9FFF776FD606840F4DE
:1014B00000106060606800F400100190019806B0B0
:1014C00010BD000040F2380041F24461C2F2000059
:1014D000C2F2000100780A681044086070470000FA
:1014E00080B542F20000C4F20200016841F0100130
:1014F0000160032000F08CF80F2000F005F800F0E8
:1015000027F8002080BD000070B540F23806C2F216
:10151000000640F240013278C2F200014FF47A73C3
:101520000968B3FBF2F20446B1FBF2F1084600F0A1
:1015300071FB0F2C4FF0010508D838B94FF0FF3080
:1015400021460022002500F037F87460284670BD5F
:1015500082B041F21800C4F202000168042241F096
:1015600001010160016801F00101019101994168E7
:1015700041F080514160406800F080500090009838
:101580000420C4F20100016862F31A61016002B034
:1015900070470000002848BF704700F01F0101227B
:1015A00002FA01F11C2202EAD0004EF20012CEF241
:1015B000000281507047000010B54EF60C5CCEF270
:1015C000000CDCF80030C3F3022E8EF00704042C6C
:1015D00028BF0424BEF103034FF0FF3E0EFA04F4CB
:1015E00038BF0023A14399400EFA03F39A431143F5
:1015F00000F00F0200F160430901043A03F564436F
:101600006244002848BF02F10C03197010BD0000AD
:101610004EF60C51CEF200010A684FF6FF031A4055
:1016200060F30A2242F0806040F0FD70086070476D
:10163000002804BF012070472DE9F04381B042F239
:101640000008C4F202080446D8F800000D4600F075
:10165000070088420CD2D8F8000020F00700284389
:10166000C8F80000D8F8000000F00700A8426CD1CC
:10167000206841F204098107C4F2020917D5410725
:1016800005D5D9F8001041F4E061C9F80010010750
:1016900005D5D9F8001041F46051C9F80010D9F807
:1016A0000010A26821F0F0011143C9F80010C00732
:1016B00042D1D8F8000000F00700A8420CD9D8F8B1
:1016C000000020F007002843C8F80000D8F8000008
:1016D00000F00700A84238D12068410707D5D9F8A3
:1016E0000010E26821F4E0611143C9F8001000071E
:1016F00008D5D9F80000216920F4605040EAC10003
:10170000C9F80000D9F8002002F00C00082841F2C6
:101710000020C0F27A004DD146F2CA53C2F3834191
:10172000C0F60003595CD20338D440F60010C0F272
:101730003D0048433EE000BF606859F8041C0228A1
:1017400008D0012826D1890306D4012001B0BDE8C4
:10175000F08300BF8901F8D5D9F8001021F003010A
:101760000843C9F80000FFF711FD064641F288372B
:10177000D9F80000616800F00C00B0EB810F98D040
:10178000FFF704FD801BB842F2D9032001B0BDE889
:10179000F08300BF8907D8D5DEE700BFD9F8002065
:1017A00046F2C853C2F34042C0F600039A5C484375
:1017B000B0FBF2F0D9F8001045F63862C1F303111E
:1017C000C0F60002515C40F2400220FA01F140F202
:1017D0003C00C2F200000068C2F200021160FFF794
:1017E00093FE002001B0BDE8F083000040F240000D
:1017F00041F20401C2F20000C4F20201006809686B
:1018000045F64862C1F30221C0F60002515CC840AF
:1018100070470000002804BF012070472DE9F04107
:1018200082B00446007841F20006C007C4F2020606
:101830000CD0706800F00C00042840F08180306803
:10184000800303D56068002800F046812078800777
:101850001BD5706810F00C0F09D0706800F00C00F8
:10186000082840F087807068C00300F183803068EA
:10187000800703D52069012840F02E813068616916
:1018800020F0F80040EAC10030602078000713D44F
:10189000207840072CD4E569002D00F0188170688D
:1018A00000F00C00082840F0A780012D40F00481D2
:1018B000012002B0BDE8F081A069002800F084801A
:1018C0000020C4F242200121C0F88014FFF75EFC22
:1018D000054600BF706A800700F1B280FFF756FC32
:1018E000401B0228F6D9032002B0BDE8F08100BFFA
:1018F000F0695FEAC00808D4F06940F08050F061F8
:10190000F06900F080500090009847F20007C4F2A0
:1019100000073868C00549D4386840F480703860E2
:10192000FFF734FC054600BF3868C0053ED4FFF71A
:101930002DFC401B6428F7D9032002B0BDE8F081DC
:10194000706800F00C00082803D17068C0033FF5F0
:1019500076AF61683068002900F00C81B1F5A02FE6
:1019600000F00081B1F5803F40F01A8140F48030F2
:101970001CE100BF2069002840F20000C4F24220B0
:1019800000F0888001210160FFF700FC054600BFE0
:10199000306880073FF572AFFFF7F8FB401B022865
:1019A000F6D9032002B0BDE8F08100BFE168306ADB
:1019B000002900F09D80052900F09280012940F067
:1019C000AF8040F00100B1E00020C4F242200021CD
:1019D000C0F88014FFF7DAFB054600BF706A800785
:1019E0007FF556AFFFF7D2FB401B0228F6D9032044
:1019F00002B0BDE8F08100BF0027C4F242270020FA
:101A00003866FFF7C3FB022D05460DD13068800113
:101A100040F1DE80FFF7BAFB401B02284FF00300C5
:101A2000F4D902B0BDE8F081306880014FD5FFF7EE
:101A3000ADFB401B02284FF00300F5D9F1E700BFD2
:101A400040F24000C2F20000006844F6D351C1F2F7
:101A50006201A0FB0101480A019000BF00BF01988C
:101A6000411E002801913FF413AF00BF0198411EB1
:101A7000002801913FF40CAF00BF0198411E0028DF
:101A800001913FF405AF00BF0198411E002801916C
:101A9000E4D1FDE600210160FFF778FB054600BFB9
:101AA000306880077FF5F1AEFFF770FB401B02281E
:101AB0004FF00300F4D9B4E77068216A00F4803273
:101AC0008A4209D1616A00F47010884204D1002072
:101AD00002B0BDE8F08100BF012002B0BDE8F08196
:101AE00040F004003062306A40F001001EE000BFA8
:101AF00020F001003062306A20F004003062FFF70D
:101B000045FB054641F28837306A800720D5FFF74C
:101B10003DFB401BB8424FF00300F5D981E700BF01
:101B200020F001003062306A20F004003062FFF7DC
:101B30002DFB054641F28837306A800708D4FFF74D
:101B400025FB401BB842F7D9032002B0BDE8F08165
:101B5000B8F1000F3FF59FAEF06920F08050F061C2
:101B600099E600BF40F480203060306840F4803057
:101B70001CE000BF20F480303060306820F480200A
:101B80003060FFF703FB0546306880037FF55EAEEB
:101B9000FFF7FCFA401B64284FF00300F4D940E73C
:101BA00020F480303060306820F480203060FFF70F
:101BB000EDFA0546306880033FF548AEFFF7E6FAD8
:101BC000401B6428F6D9032002B0BDE8F08100BFB5
:101BD000206AB0F5803F05D17168A26821F4003118
:101BE000114371607168626A21F4741111430843F2
:101BF000706001203866FFF7C9FA0446306880013A
:101C00003FF565AFFFF7C2FA001B02284FF0030053
:101C1000F4D906E7411E0020B0EB116F1CBF012074
:101C200070474EF21002CEF2000251604EF6235180
:101C3000CEF20001F0230B70072190601160704715
:101C4000704700007047000090F83C20012A4FF0D8
:101C5000020242D010B580F83D200268D2F804E0BC
:101C6000D2F808C00C682EF07003234340F6FF340E
:101C7000C4F20004A242536010DCB2F1804F1FD0C6
:101C800040F20043C4F200039A4219D040F6000328
:101C9000C4F200039A4213D017E000BF40F600439D
:101CA000C4F200039A420BD043F20043C4F2010392
:101CB0009A4205D042F60043C4F201039A4204D18D
:101CC00049682CF08003194391600121002280F8BB
:101CD0003D1080F83C20BDE81040104670470000E1
:101CE000002804BF0120704710B5044690F83D005D
:101CF00028B9002084F83C00204600F01FF802209C
:101D000084F83D002068211D00F0BEFF012084F80A
:101D1000460084F83E0084F83F0084F8400084F8D0
:101D2000410084F8420084F8430084F8440084F8B9
:101D3000450084F83D00002010BD00000068B0F1AF
:101D4000804F18BF704780B582B041F21C00C4F2CA
:101D500002000168002241F00101016000680021D9
:101D600000F00100019001981C20FFF725FC1C20C9
:101D700002B0BDE88040FFF70DBC000090F83D10B8
:101D800001291CBF01207047022180F83D10006826
:101D900040F6FF32C168C4F20002904241F00101F6
:101DA000C1600FDCB0F1804F1ED040F20041C4F2A0
:101DB0000001884218D040F60001C4F200018842B8
:101DC00012D018E040F60041C4F2000188420BD066
:101DD00043F20041C4F20101884205D042F60041BD
:101DE000C4F20101884206D1816801F00701062989
:101DF00004BF00207047016841F00101016000202C
:101E00007047000090F83C20012A4FF002026CD08D
:101E100080B580F83D20D0F800C04FF67772DCF82E
:101E2000083023EA0202CCF808200B684F2B29DC8B
:101E30001F2B45DD202B46D0302B44D0402B40F0CB
:101E4000AF80D1F804E0C968DCF82030DCF820204D
:101E500022F00102CCF82020DCF8182022F0F00259
:101E600042EA011123F00A0242EA0E02CCF81810ED
:101E7000CCF82020DCF8081041F0470121F03001B7
:101E800028E000BF6F2B33DDB3F5005F74D0B3F5EE
:101E9000805F21D0702B40F08380D1E901E3C968D5
:101EA000DCF8082043EA0E0322F47F4243EA0121D2
:101EB0001143CCF80810DCF8081041F0770109E074
:101EC0000BB1102B6CD1DCF8081021F07001194314
:101ED00041F00701CCF808100022012180F83D10E4
:101EE000002180F83C10BDE880401046704700BFDC
:101EF000502B21D0602B53D1D1F804E0C968DCF815
:101F00002030DCF8202022F01002CCF82020DCF871
:101F1000182022F4704242EA013123F0A00242EA82
:101F20000E12CCF81810CCF82020DCF8081041F084
:101F3000670121F01001CDE7D1F804E0C968DCF8B1
:101F40002030DCF8202022F00102CCF82020DCF840
:101F5000182022F0F00242EA011123F00A0242EABC
:101F60000E02CCF81810CCF82020DCF8081041F054
:101F7000570121F02001ADE7D1E901E3C968DCF8A0
:101F8000082043EA0E0322F47F4243EA0121114371
:101F9000CCF80810DCF8081041F480419AE700BF43
:101FA00001229AE77047000070B504460068C568D2
:101FB0000669B10716D515F0020113D06FF00201C2
:101FC0000161012121778069800703D02046FFF756
:101FD000E9FF05E0204600F08FF8204600F08EF87B
:101FE00000202077700719D515F0040016D020685E
:101FF0006FF00401016102212177806910F4407FB4
:1020000004D02046FFF7CEFF06E000BF204600F0D8
:1020100073F8204600F072F800202077300717D5BB
:1020200015F0080014D020686FF008010161042148
:102030002177C069800703D02046FFF7B3FF05E092
:10204000204600F059F8204600F058F8002020778C
:10205000F00619D515F0100016D020686FF01001A9
:10206000016108212177C06910F4407F04D0204627
:10207000FFF798FF06E000BF204600F03DF820463D
:1020800000F03CF800202077F00718BF15F00100A1
:1020900002D1300609D412E020686FF0010101611D
:1020A000204600F02DF8300609D515F0800006D046
:1020B00020686FF0800101612046FFF7C1FD7006C6
:1020C00009D515F0400006D020686FF0400101618D
:1020D000204600F01FF8B00658BF70BD15F0200074
:1020E00008D021686FF0200220460A61BDE87040E8
:1020F000FFF7A8BD70BD00007047000070470000EA
:1021000041F2BC51C2F20001884218BF704700F092
:10211000B3BF000070470000FEE700002DE9F04368
:1021200083B0044600680F4601680A9D0B9E41F487
:10213000807199469046016020464FF001110022BF
:102140002B46009600F0ACF850B120680068C0053E
:1021500044BF4FF400702064032003B0BDE8F08357
:10216000206807F0FE0101610221C0F20101204652
:102170002A46334600F07AF920B1012003B0BDE8C9
:10218000F08300BF0020029020683246416902912E
:102190008069294602900298204600F0D3F958B190
:1021A000206C0428E9D12068016841F400710160C5
:1021B000012003B0BDE8F0832068B9F1010F0AD017
:1021C0004FEA1821016120462946324600F0BAF94B
:1021D0000028E5D120685FFA88F10161002003B092
:1021E000BDE8F08370B50368044653F8140F400748
:1021F00011D40E46481C29D086BB00BF1868400584
:1022000027D4FEF7C3FF236853F8140F400737D5D0
:1022100018684007F2D5002070BD00BF186840075D
:10222000F9D41868400514D418684007F3D4186826
:1022300040050ED418684007EDD41868400508D44E
:10224000186840074FF0000048BF70BD186840058F
:10225000E4D56FF480601860042012E0154603E0B6
:1022600053F8140F4007D6D418684005F1D4FEF790
:102270008DFF401B2368B042F2D958694007EFD464
:10228000202000212022216384F83D2084F83E1084
:10229000226C10432064012084F83C1070BD0000C3
:1022A0002DE9F041054600681E46144601F47F0200
:1022B00001338FB242D0DDF81880B2F5803F40F094
:1022C000878040693840C01BB0FA80F04009A042C6
:1022D00040F0C8804EB924E040693840C01BB0FAD5
:1022E00080F04009A04240F0BD80FEF74FFFA0EB18
:1022F00008012868B142EFD941693940C91BB1FAD8
:1023000081F14909A142E7D19BE000BF4069384013
:10231000C01BB0FA80F04009A0424FF0000040F02E
:10232000A280FEF733FF286841693940C91BB1FA22
:1023300081F14909A142E9D183E000BFB2F5803FB4
:1023400024D100BF41693940C91BB1FA81F1490963
:10235000A14240F0878041693940C91BB1FA81F13F
:102360004909A14240F07E8041693940C91BB1FA58
:1023700081F14909A14275D141693940C91BB1FABE
:1023800081F14909A142DDD06CE000BF816939408B
:10239000C91BB1FA81F14909A14263D18169394070
:1023A000C91BB1FA81F14909A1425BD18169394068
:1023B000C91BB1FA81F14909A14253D18169394060
:1023C000C91BB1FA81F14909A142DFD04AE000BF3F
:1023D00080693840C01BB0FA80F04009A04241D16A
:1023E00046B923E080693840C01BB0FA80F040094C
:1023F000A04237D1FEF7CAFEA0EB08012868B1421F
:10240000F0D981693940C91BB1FA81F14909A1426A
:10241000E8D116E080693840C01BB0FA80F040096E
:10242000A0424FF0000018BFBDE8F081FEF7AEFEFD
:10243000286881693940C91BB1FA81F14909A14273
:10244000E8D100202021286385F83D1085F83E0062
:10245000296C41F02001296485F83C000120BDE889
:10246000F08100BF0020BDE8F0810000F0B581B030
:10247000044600681D4643698FB203EA0701B9426A
:1024800002D1002001B0F0BD4169164601323CD0B6
:10249000490512D47EB300BFFEF778FE411B2068C9
:1024A000B14203D941693940B9422BD14169394020
:1024B000B942E6D041694905EED5016841F40071A1
:1024C00001606FF4806141610420002120222163BA
:1024D00084F83D2084F83E10226C1043206484F878
:1024E0003C10012001B0F0BD41693940B942C8D06B
:1024F00041694905E1D4FEF749FE20684169394048
:10250000B942F1D02020E0E741694905D5D44169BD
:102510003940B942B5D041694905CED44169394005
:10252000B942AED041694905C7D441693940B94281
:10253000A7D041694905C0D441693940B942E3D1C6
:102540009FE7000070B50368044653F8140F0006B7
:1025500011D40E46481C29D086BB00BF1868400520
:1025600027D4FEF713FE236853F8140F000637D55F
:1025700018680006F2D5002070BD00BF186800067C
:10258000F9D41868400514D418680006F3D4186804
:1025900040050ED418680006EDD41868400508D42C
:1025A000186800064FF0000048BF70BD186840056D
:1025B000E4D56FF480601860042012E0154603E053
:1025C00053F8140F0006D6D418684005F1D4FEF76E
:1025D000DDFD401B2368B042F2D958690006EFD4F4
:1025E000202000212022216384F83D2084F83E1021
:1025F000226C10432064012084F83C1070BD000060
:1026000040F25800C2F200008168406850F8210092
:102610007047000010B540F25001C2F200010B7883
:102620004A6840F2685CC2F2000C6BB90CEB020322
:102630004FF0010E5C0781F800E005D0072424EA82
:1026400003031A4401324A60073020F00703C2F541
:10265000805083428FBF00200CEB02001A444A6076
:1026600010BD000010B504460820FFF7D3FF002876
:102670001EBF42F28161C0F60001C0E9001410BD26
:102680000020704710B10268104700BFFEE700004D
:1026900000281CBF01607047FEE7000020B329B38B
:1026A000B0B505461C200C46FFF7B4FF002808BF54
:1026B000B0BD00210560017184610446FFF7D2FFBF
:1026C000A060204600F024FA0146204642F2F16262
:1026D00042F2FD6304F10C0CC0F60002C0F60003E8
:1026E0008CE80E00B0BD00BFFEE700BFFEE70000B3
:1026F00000281CBF00207047FEE7000000281CBF18
:1027000000207047FEE7000040B1017900291CBF9E
:10271000002070470269012101711047FEE70000A7
:1027200040B10179002904BF0020704742690021AF
:1027300001711047FEE70000B0B540F25805C2F243
:10274000000500BFD5E90501884208BFB0BD296971
:10275000D5E9012351F8204052F82310421C886823
:1027600002F00F02431C6A610CD0496851F8200046
:1027700021468068FFF786FF0028E3D1D5E90101F3
:1027800050F8211048692146FFF77CFF0028D9D175
:10279000E8682146FFF776FFD4E70000B0B110B536
:1027A00040F25804C2F20004214641F81C0F0022F6
:1027B00084E8070041F20460C2F20000C4E90402A8
:1027C0002046A261FFF74EFFE06010BDFEE700006B
:1027D00040F2580CC2F2000CDCE90532511C01F049
:1027E0000F01994208BF7047DCF8101041F8220031
:1027F000DCF81800013000F00F00CCF8180070472A
:10280000B0B5D8B140F25805C2F20005A9680E294A
:1028100088BFB0BD6A68044652F821104A6A08466B
:1028200000219047D5E901014A1C40F82240E369A4
:1028300020460021AA60BDE8B0401847FEE700002E
:1028400010B540F25804C2F20004A068002808BF86
:1028500010BD616851F820000021026A9047D4E958
:1028600001014A1E50F822000021836AA260BDE8DF
:102870001040184740F25800C2F2000081684068DA
:1028800050F821000021806900F05AB900281CBFCF
:1028900000207047FEE700002DE9F04381B008B347
:1028A000894609B3D0F80C800446B8F1000F0DD06A
:1028B0006768D9F800604546386831460068FDF71A
:1028C0009DFC60B1013D07F10407F5D12069804509
:1028D00005D2606808F10101E16040F8289001B07C
:1028E000BDE8F083FEE700BFFEE700002DE9F04100
:1028F000002800F0C38040F2B406C2F20006376838
:10290000102F80F0BD8004468846002F00F087809D
:10291000756821462868FDF771FC002800F0AB803F
:10292000012F7CD0B56821462868FDF767FC002898
:1029300000F0A180022F72D0F56821462868FDF7CB
:102940005DFC002800F09780032F68D03569214690
:102950002868FDF753FC002800F08D80042F5ED01E
:10296000756921462868FDF749FC002800F083803E
:10297000052F54D0B56921462868FDF73FFC002893
:1029800079D0062F4BD0F56921462868FDF736FC33
:10299000002870D0072F42D0356A21462868FDF7FD
:1029A0002DFC002867D0082F39D0756A2146286889
:1029B000FDF724FC00285ED0092F30D0B56A2146EF
:1029C0002868FDF71BFC002855D00A2F27D0F56A90
:1029D00021462868FDF712FC00284CD00B2F1ED092
:1029E000356B21462868FDF709FC002843D00C2FE1
:1029F00015D0756B21462868FDF700FCD8B30D2F64
:102A00000DD0B56B21462868FDF7F8FB98B30E2F63
:102A100005D0F56B21462868FDF7F0FB58B3382048
:102A2000FFF7F8FD4FF0000528B331684A1C06EBAC
:102A3000810148604FEA880104600446084632601C
:102A4000FFF7E8FD221D4FF0FF3182E82301204609
:102A5000FFF708FE6061204600F05AF842F68D014B
:102A6000C0F60001C4E90C152546C4E90601C4E915
:102A70000811C4E90A112846BDE8F081FEE700BF4D
:102A8000FEE7000050B1002905D4C2688A4202D98D
:102A900082688A4204D10020704700BFFEE700BF71
:102AA000B0B5531C0DD04368044653F822200D46A0
:102AB0001046FFF735FE226B014620469047294617
:102AC00020464268816052F8212004461046FFF7F4
:102AD0001BFEE26A01462046BDE8B04010470000F8
:102AE000A0B181684A1C04BF0020704710B542683D
:102AF000044652F821100846FFF712FE226B0146E9
:102B0000204690474FF0FF31A16010BDFEE7000066
:102B100010B504460C20FFF77DFD002808BF10BD4E
:102B200042F63531C0F600010022C0E9001482608F
:102B300010BD0000002818BF704700BFFEE700006E
:102B400010B10268104700BFFEE7000000281CBF5C
:102B500001607047FEE7000080B586B00020CDE937
:102B60000400CDE9020041F21800C4F2020001683D
:102B700041F020010160016801F0200101910199FB
:102B8000016841F008010160006802A900F0080036
:102B9000019001980F2002900120049041F2004022
:102BA000C4F20100FEF7F8F906B080BD80B541F22D
:102BB000685045F20041C2F20000C4F2000141F643
:102BC000802200234FF4804CC0F2060280E80E0001
:102BD000C0E9033CC0E90533C0E90733FEF7DCFA7E
:102BE000002808BF80BDBDE88040FEF7BBB90000EB
:102BF00080B586B041F2BC500021C2F200004FF017
:102C0000640C0591CDE90311CDE900114FF080422C
:102C100040F67F43C0E9021C01618021C0E9002326
:102C20008161FFF75DF8002818BFFEF79BF94FF4AC
:102C30008050029041F2BC50C2F2000002A9FFF79E
:102C4000E1F8002818BFFEF78DF941F2BC50C2F23E
:102C500000006946FEF7F8FF002818BFFEF782F96A
:102C600006B080BDFEE70000FEE7000070470000F0
:102C700070470000FEF726BC7047000041F2BC50D0
:102C8000C2F20000FFF790B910B540F6FF320368BA
:102C9000C4F2000240F6004E43F2004C9042C4F2EF
:102CA000000EC4F2010C21DCB0F1804F28D040F2BC
:102CB0000044C4F20004A04222D040F60004C4F252
:102CC0000004A0421CD0904220DCB0F1804F27D0FD
:102CD00040F20042C4F20002904221D040F60002CD
:102CE000C4F2000290421BD01EE000BF704507D026
:102CF000604505D042F60044C4F20104A042E2D18E
:102D00004C6823F0700323439042DEDD704507D00A
:102D1000604505D042F60042C4F20102904203D160
:102D2000CA6823F4407313434C6923F08002D1F83E
:102D300000E08B68224360450260C362C0F828E06F
:102D400005D042F60042C4F20102904201D1096965
:102D50000163012141610169C90708BF10BD016913
:102D600021F00101016110BDFEE70000032984BFCD
:102D70000020704780B54068426BDFE801F0031F18
:102D80000D1700BF10884FF6FF7188421CBF013835
:102D90001080012080BD00BF11884FF6FF72914264
:102DA000F7D0FFF76FFE012080BD00BF81680131C1
:102DB0000ED0FFF795FE012080BD00BF1188C068CE
:102DC00001318BB2984288BF1180012080BD00BFC5
:102DD000FFF736FD012080BD2DE9F04182B0466845
:102DE000706BB1680488481C03D13168002000F082
:102DF0000FFBF0680A210628ADF8061006D3611C07
:102E000089B205292AD200202DE000BF002800F059
:102E1000998004EB8400132101EB400700240DF19D
:102E20000608BDB205E000BFF0680134844280F0BE
:102E300089807068414650F82400C068FFF780FE22
:102E4000BDF806000A3081B28F42ADF80600EBDA19
:102E50002846012100F0C8FAE6E700BF0138A04289
:102E60000CBF201FE01E85B27168601B00EB800262
:102E700051F825001321C06801EB42040DF1060151
:102E8000FFF75EFEBDF806000A3081B28C42ADF855
:102E9000060003DAA0B2012100F0A6FA70680DF175
:102EA000060100EB85004068C068FFF749FEBDF8E9
:102EB00006000A3081B28C42ADF8060003DAA0B2F7
:102EC000012100F091FA70680DF1060100EB850018
:102ED0008068C068FFF734FEBDF806000A3081B292
:102EE0008C42ADF8060003DAA0B2012100F07CFAB2
:102EF00070680DF1060100EB8500C068C068FFF73F
:102F00001FFEBDF806000A3081B28C42ADF8060003
:102F100003DAA0B2012100F067FA70680DF1060132
:102F200000EB85000069C068FFF70AFEBDF80600E7
:102F30000A3081B28C42ADF8060003DAA0B201215A
:102F400000F052FA00F084FA02B0BDE8F08100000F
:102F50000020FFF73DBC00000120FFF739BC000056
:102F60000220FFF735BC00000320FFF731BC000052
:102F700080B543F6A541C0F60001002000F0CEFE6A
:102F800043F6BD41C0F60001012000F0C7FE43F644
:102F9000D541C0F60001022000F0C0FE43F6ED412D
:102FA000C0F60001032000F0B9FE42F65172C0F6EF
:102FB00000020020002100F0A5FE42F65972C0F682
:102FC00000020120002100F09DFE42F66172C0F671
:102FD00000020220002100F095FE42F66972C0F660
:102FE00000020320002100F08DFE43F26902C0F6CA
:102FF00000020020012100F085FE43F27102C0F6BC
:10300000000201200121BDE8804000F07BBE0000ED
:1030100040F2F800C2F20000011D01604FF0FF31E4
:10302000C0F8091041730021C0F80E10817444F6F5
:103030001D1144F61912C0F60001C0F60002C0E9E5
:103040001022C0E91222C0E91422C0E91622C0E908
:103050000811C0E90A11C0E90C12C0E90E22C0E94A
:103060001822C0E91A2270471020FFF7B1BB0000F8
:103070001120FFF7ADBB00002DE9F04F81B040F209
:10308000F804C2F20004204650F8041B814213D118
:10309000206A804721680870606A8047216848700C
:1030A000A06A804721688870E06A80472168C870FC
:1030B000206B80472168087104F10E0000224FF058
:1030C000010E4FF0020C42F2C50A4FF4FA7B4FF0AA
:1030D0000509002706E000BF0137052F00F10100B8
:1030E00000F088800378052BF6D8DFE803F00F4D59
:1030F000293B190304EB47039D8A0A359D82CB5D6A
:10310000002B04BF027000F805CCE5E7CB5D012B76
:10311000E2D104EB470380F800E09A82DCE700BFCD
:1031200004EB4705AB8A0A339EB2152EAB82D3D38C
:10313000CB5D012B3AD180F80090AA82CCE700BF8A
:1031400004EB4706B6F8148008F10A05B582CB5D9A
:1031500083B3A8F5C376B3B20A2B39D200F805ECD5
:10316000BAE700BF04EB4705AB8A03F10A06B3B226
:10317000C82BAE821AD8152BAED3CB5D012BABD1A9
:1031800004230370AA82A7E704EB4705AB8A0A333E
:103190009EB2152EAB82FFF49FAFCB5D012B12BF09
:1031A000027080F800C0AA8296E700BF027000F8A3
:1031B000052C91E7ABB2B3F5C87F03D203230370AC
:1031C000B28289E70270A8F5C376B3B20A2BC5D3E1
:1031D000ADB2B5F5617FFFF47FAF9B0803FB0AF347
:1031E0001B0D03FB1B639BB2092B98BF00F805EC7A
:1031F00072E700BF94F90900411C05D004EB800080
:10320000406B8047FF20607294F90A00411C05D092
:1032100004EB8000006C8047FF20A07294F90B0043
:10322000411C05D004EB8000C06C8047FF20E07299
:1032300094F90C00411C05D004EB8000806D8047A0
:10324000FF20207394F90D00411C05D004EB800091
:10325000406E8047FF20607301B0BDE8F08F000032
:1032600010B51021FFF742FB044643F6F12043F668
:103270004541C0F60000C0F60001C4E90701C4E9F9
:1032800009100220FFF7C6F94FF6FF71A26901800D
:1032900042F6D9516063C0F600011046FFF756FCB4
:1032A000606942F66D51C0F60001FFF7F1F9204662
:1032B00010BD0000B0B5054608200C46FFF7AAF97E
:1032C00001462846C1E90054FFF7E8F943F25541A9
:1032D0000446C0F60001C068216143F26D41C0F6AA
:1032E0000001FFF733FC2046B0BD0000F0B581B00F
:1032F0000446102016460F46FFF78CF90B2E04608B
:103300000671876010D805460020DFE806F0171D1B
:10331000070F171D070F2323280700BF0420FFF7FF
:1033200079F901211AE000BFFEE700BF0820FFF78E
:1033300071F900210122C0E9002110E001200126DD
:10334000FFF768F906700AE00220FFF763F9012130
:10335000018004E00420FFF75DF900210160E860CE
:1033600020462946FFF79AF9044643F27940C0F611
:10337000000020610820FFF74DF9E1688860132004
:10338000FFF748F9E168896808601320FFF742F900
:10339000E2689168486043F2FD41C0F600011046C2
:1033A000FFF7D4FBA06843F29D41C0F60001FFF790
:1033B0006FF9204601B0F0BD002000F0B7BC00005E
:1033C00080B582B0C0B28C4600294FF000010246A1
:1033D0004FF03F0318BF4FF0010CCDF800C000F0D4
:1033E00029FE02B080BD000080B582B08C46002965
:1033F000C1B24FF000004FF07F020B4618BF4FF0F4
:10340000010CCDF800C000F015FE02B080BD000038
:10341000B0B586B00DF105050B4604460AA2284654
:10342000132101F07DFAE1B2002000F0B9FE46F26E
:10343000BC50C0F6000090E80E000124284600941D
:1034400001F07CF806B0B0BD252D313873000000C6
:1034500000F0AEBE10B580694468FFF7D1F8FFF701
:103460003FFB2046FFF7CCF9002010BD4068826981
:1034700008881168FFF7CCBF806901790A290BD150
:1034800080B58068017881F001010170FFF7B8F81C
:10349000FFF726FBBDE880400020704710B51129DA
:1034A0004FF0000427D84068DFE801F00A1A25250C
:1034B000252525252525252525252525122000BF5F
:1034C00080690121012401F093F9204610BD00BF5D
:1034D00080690121012401F059F8204610BD00BF88
:1034E0008069002101F084F904E000BF80690021B7
:1034F00001F04CF80124204610BD00002DE9F043F6
:1035000083B046680C46B769F268387995680B282D
:1035100000F216813B68DFE800F00799617347AF5E
:10352000C583E559D51900BFB968286891F900C06D
:1035300046F21062C0F600021321CDF800C001F07F
:10354000EFF9F968686891F9003090E0D7F80890D1
:1035500098464846FCF74BFE002800F00581F968C4
:103560000968F9B148F639620138C3F6E302A0FBF5
:1035700002020120434600EB52084046414538BF55
:10358000084600EBC0012868494446F21A62A1F1DE
:10359000090CC0F600021321CDF800C001F0C0F9FB
:1035A000EFE000BFFEE700BFB968286891F800C0EF
:1035B00046F2FE52C0F600021321CDF800C001F021
:1035C000AFF9F96868680B7866E000BFB9682868E9
:1035D000D1E900CE76A2132191E000BFB968286836
:1035E000D1F800C046F21062C0F600021321CDF8F7
:1035F00000C001F095F9F96868680B6837E000BF12
:10360000B9682868D1E900CE7BA21321CDE900CEAC
:1036100001F086F9F9686868D1E9003779A20EE00F
:10362000B9682868D1E900CE68A21321CDE900CE9F
:1036300001F076F9F9686868D1E9003766A21321CC
:10364000CDE9003701F06CF967E000BFB968286880
:10365000B1F900C046F21062C0F600021321CDF8A5
:1036600000C001F05DF9F9686868B1F9003046F210
:103670000862C0F600024DE0B9682868B1F800C0E1
:1036800046F2FE52C0F600021321CDF800C001F050
:1036900047F9F96868680B8846F2F652C0F60002EE
:1036A00038E000BFB9682868D1F800C04DA21321E6
:1036B000CDF800C001F034F9F96868680B684CA2D5
:1036C00028E000BFB96836A2097837A72868002922
:1036D00008BF174646F21A62C0F60002132100978F
:1036E00019E000BFB868D5F8008000689946FDF77A
:1036F000BCF984468E4632A2404613214B46CDE9A2
:1037000000CE01F00DF9F96868680B6846F2E952DD
:10371000C0F60002132101F003F9F06885682088E3
:103720002968FFF775FE307930B16968002003B071
:10373000BDE8F043FFF76CBE03B0BDE8F08300BF07
:1037400028680021017347F67411C6F27051816038
:1037500047F26F71C2F26E01416046F65561C6F6DE
:103760006B610160D9E700BF286846F21A62C0F6B3
:10377000000213214346CDF8009001F0D1F84FF03C
:103780000008F96868680B6802A21321CDF8008070
:10379000C1E700BF6C696E653A25752F257500007D
:1037A00066616C736500000074727565000000004E
:1037B000252D382E38733A252E336C660000000014
:1037C000252D382E38733A252E336600252D382EB8
:1037D00038733A256C6C7500737465703A256C6C9F
:1037E00075000000252D382E38733A25750000002D
:1037F000737465703A257500252D382E38733A2577
:103800006C6C6900737465703A256C6C690000001B
:1038100090B0FDF765FE00240120CDE90B44CDE911
:1038200009440A9010200B904FF4601002250F906D
:1038300006A8CDE907440695CDE90D54FDF7EAFF4A
:1038400020B1EFF3108072B6FEE700BF0F20CDE984
:1038500001054FF48060CDE9040401A8022103941E
:10386000FDF7E6FE20B1EFF3108072B6FEE700BF71
:10387000FFF772F9FFF79AF9FFF7BAF9FFF7C8FBFC
:10388000FFF776FB00F012F800F05EFA002000F07F
:103890004DFA41F2BC50C2F20000FEF76FFA00BFD1
:1038A000FEF74AFFFEF7E6FFFAE70000F0B581B049
:1038B00046F2E050C0F60000FFF7D2FC044646F2A4
:1038C000DA50C0F60000FFF7CBFC064657A03146A1
:1038D000FFF7F0FC01462046FEF7DEFF40F2080548
:1038E000C2F2000554A029460022FFF7FFFC014662
:1038F0003046FEF7D1FF291D51A00122FFF7F6FC4B
:1039000001463046FEF7C8FF05F108014EA002222D
:10391000FFF7ECFC01463046FEF7BEFF05F118014B
:103920004BA00322FFF7E2FC01463046FEF7B4FF4E
:1039300049A0FFF795FC06464AA03146FFF7BAFCBE
:1039400001462046FEF7A8FF691C4AA00422FFF7A3
:10395000CDFC01463046FEF79FFFA91D47A005227A
:10396000FFF7C4FC01463046FEF796FF05F10C0157
:1039700044A00622FFF7BAFC01463046FEF78CFF52
:1039800005F1200141A00722FFF7B0FC01463046B7
:10399000FEF782FF3FA0FFF763FC064640A03146DA
:1039A000FFF788FC01462046FEF776FF05F110017F
:1039B0003FA00822FFF79AFC074630463946FEF73B
:1039C0006BFF20463946FEF767FF05F1280139A055
:1039D0000922FFF78BFC074630463946FEF75CFFAD
:1039E00020463946FEF758FFA91C33A00A22FFF7EC
:1039F0007DFC054630462946FEF74EFF2046294607
:103A0000FEF74AFF2EA030A10B22FFF76FFC054600
:103A100030462946FEF740FF20462946FEF73CFF88
:103A2000204601B0BDE8F040FEF7B8BE656E5F709D
:103A3000616765496E747300696E74380000000038
:103A4000696E743136000000696E74333200000014
:103A5000696E743634000000706167655F75696E69
:103A600074000000656E5F7061676555696E747300
:103A70000000000075696E743800000075696E748E
:103A80003136000075696E743332000075696E74EA
:103A900036340000706167655F666C74000000007A
:103AA000656E5F70616765466C6F617473000000DE
:103AB0006633320066363400626F6F6C00000000BF
:103AC0006373747200000000496D20612063737499
:103AD00072203120323220333333203434343420D6
:103AE0003535353535203636363636362021000028
:103AF0002DE9F04F81B00446406BB0F800B0FFF7FD
:103B00005BFCFFF7A5FC0BF1010000271FFA80FA10
:103B10000DF102054FF00009002653E0481E5845FC
:103B20004FF6FC7018BF01300BEB0009BAF1050F1E
:103B300038BF4FF0000960681FFA89F850F8280074
:103B40002946C068FEF7FCFF6068BDF8021000EB74
:103B5000880040683144C068ADF802102946FEF77D
:103B6000EFFF6068BDF8021000EB88008068314408
:103B7000C068ADF802102946FEF7E2FF6068BDF8A4
:103B8000021000EB8800C0683144C068ADF8021034
:103B90002946FEF7D5FF6068BDF8021000EB8800EB
:103BA00000693144C068ADF802102946FEF7C8FF2D
:103BB000BDF802003044ADF80200FFF749FC0136C1
:103BC0000B2E27D0A068ADF8027001304FF0000036
:103BD00004D12168FFF71CFCBDF80200E168304405
:103BE0000529ADF8020099D80029E6D0002700BFCA
:103BF0006068294650F82700C068FEF7A1FFBDF8AD
:103C00000200E168013730448F42ADF80200EFD383
:103C10000027D2E74FF6FC70033080B283450AD00C
:103C2000ABEB090000EB8000132101EB400080B2F8
:103C30000121FFF7D9FBFFF70BFC002001B0BDE825
:103C4000F08F000010B5002405E000BFFFF700FC76
:103C50000134162C24D0A0B20021FFF7B1FB04F1EF
:103C6000160080B20021FFF7ABFB04F12C0080B2FC
:103C70000021FFF7A5FB04F1420080B20021FFF70D
:103C80009FFB04F1580080B20021FFF799FB112C33
:103C9000DCD804F16E0080B20021FFF791FBD5E77C
:103CA000002010BD80B541F20040C4F201000121A6
:103CB000FDF766FAB0FA80F0400980BD80B541F2A8
:103CC0000040C4F201000221FDF75AFAB0FA80F078
:103CD000400980BD80B541F20040C4F201000421DA
:103CE000FDF74EFAB0FA80F0400980BD80B541F290
:103CF0000040C4F201000821FDF742FAB0FA80F05A
:103D0000400980BD40F2F80300EB4000C2F200031E
:103D100003EB800000EB81004263704740F2F80241
:103D2000C2F2000202EB80000162704780B50246D9
:103D3000002840F26810C2F200004FF4806118BF02
:103D4000FF22FCF742FA80BD2DE9F04784B06420E1
:103D5000FDF70EF941F2685440F24808AE20C2F275
:103D60000004C2F200084FF000098DF80F004FF078
:103D7000FF3701250DF10F0620467821002201238F
:103D800088F80090CDE900650297FDF7B7FA4FF08B
:103D9000200A20467821002201238DF80FA0CDE9CA
:103DA00000650297FDF7AAFA204678210022012338
:103DB0008DF80F90CDE900650297FDF79FFAB020CE
:103DC0008DF80F002046782100220123CDE90065FF
:103DD0000297FDF793FAC8208DF80F00204678214E
:103DE00000220123CDE900650297FDF787FA2046FE
:103DF0007821002201238DF80F90CDE9006502970C
:103E0000FDF77CFA10208DF80F0020467821002263
:103E10000123CDE900650297FDF770FA40208DF887
:103E20000F002046782100220123CDE9006502978A
:103E3000FDF764FA81208DF80F00204678210022DA
:103E40000123CDE900650297FDF758FAFF208DF8B0
:103E50000F002046782100220123CDE9006502975A
:103E6000FDF74CFAA1208DF80F00204678210022A2
:103E70000123CDE900650297FDF740FAA6208DF8F1
:103E80000F002046782100220123CDE9006502972A
:103E9000FDF734FAA8208DF80F0020467821002283
:103EA0000123CDE900650297FDF728FA3F208DF840
:103EB0000F002046782100220123CDE900650297FA
:103EC000FDF71CFAA4208DF80F002046782100226F
:103ED0000123CDE900650297FDF710FAD3208DF894
:103EE0000F002046782100220123CDE900650297CA
:103EF000FDF704FA20467821002201238DF80F9067
:103F0000CDE900650297FDF7F9F9D5208DF80F008E
:103F10002046782100220123CDE900650297FDF7B4
:103F2000EDF9F0208DF80F002046782100220123C2
:103F3000CDE900650297FDF7E1F9D9208DF80F0072
:103F40002046782100220123CDE900650297FDF784
:103F5000D5F922208DF80F00204678210022012378
:103F6000CDE900650297FDF7C9F9DA208DF80F0059
:103F70002046782100220123CDE900650297FDF754
:103F8000BDF912208DF80F00204678210022012370
:103F9000CDE900650297FDF7B1F9DB208DF80F0040
:103FA0002046782100220123CDE900650297FDF724
:103FB000A5F920467821002201238DF80FA0CDE934
:103FC00000650297FDF79AF98D208DF80F002046C5
:103FD000782100220123CDE900650297FDF78EF9D3
:103FE00014208DF80F002046782100220123CDE90E
:103FF00000650297FDF782F9AF208DF80F0020468B
:1040000078210022012388F80050CDE9006502974D
:10401000FDF774F940F26810C2F200004FF48061BD
:10402000FCF7DAF800F0C4F8C8F8029004B0BDE874
:10403000F0870000B2EB000C48BFCCF1000C2DE97A
:10404000F04F81B0B3EB010E48BFCEF1000E8242BB
:104050004FF0FF3B56B2DDF828804FF0FF3A88BFA3
:104060004FF0010B8B4288BF4FF0010A002EACEBE2
:104070000E0600932AD43F2B28D803F007074FF0F1
:104080000109B8F1010F09FA07F903F0F80713D194
:1040900040F2681802EB0714C2F2000818F8047026
:1040A000904247EA090708F8047008BF994273D0A4
:1040B000CEF1000914E000BF40F2681402EB0715CE
:1040C000C2F20004675D27EA09076755904208BFFE
:1040D000994261D0B8F1010FCEF100092ED100BF95
:1040E000CCB23F2C16D844B2002C13D4C4B201F089
:1040F000780844EA081440F26818C2F2000801F097
:10410000070518F80470012303FA05F5009B3D43E9
:1041100008F80450B9EB460F3446BCBFA4EB0E04BC
:104120005844C5B2BCEB460FC4BF514464449542E9
:104130002646D5D1CCB29C42D2D12DE040F26814B3
:10414000C2F20004CDB23F2D13D845B2002D10D4D9
:10415000C3B201F0780743EA071801F0070514F825
:104160000870012303FA05F5009B27EA050504F80A
:104170000850B9EB460F3746BCBFA7EB0E075844B3
:10418000C5B2BCEB460FC4BF5144674495423E469E
:10419000D8D1CDB29D42D5D101B0BDE8F08F00009D
:1041A00040F24802C2F20002508091807047000045
:1041B0002DE9F04F85B040F2681641F26854C2F222
:1041C00000064FF0FF370125C2F200044FF0100B3C
:1041D0000DF113084FF080094FF0000A4AF0B000CB
:1041E0008DF811000DF11100CDE900052046782170
:1041F000002201230297FDF781F800208DF81200BC
:104200000DF11200CDE9000520467821002201239E
:104210000297FDF773F820467821002201238DF8DC
:1042200013B0CDE900850297FDF768F820467821A4
:1042300040220123CDE900690297FDF75FF80AF1FA
:10424000010ABAF1080F06F18006C7D105B0BDE832
:10425000F08F00002DE9F04F88B0A0F17F0717F133
:104260005F0F11D340F24807C2F20007B7F802E02F
:10427000CDB205EB0E06802E06D80E0ABF88F6B228
:1042800006973744402F03D9002008B0BDE8F08FCF
:10429000002E0395CDE9003000F03A810398002804
:1042A00000F036810198119F2038704302EB4000E6
:1042B0000290039801F0030140F2681A3546059117
:1042C000401A0021C2F2000A0790049608E000BFDD
:1042D00002EA0C000AF803000131A94200F018813B
:1042E00006980B18DAB23F2AF6D8029803F00702B4
:1042F00030F81190012000FA02FB03988BF0FF0CBC
:1043000004284FF4786000EA03184FF000040ED23E
:104310000598002840F09680DEE700BF02EA0C0016
:104320000AF8040007986C1C844200F0858023463C
:1043300009FA03F274441204E5B24FEA04620BD5A1
:10434000002A15D445EA08051AF80560012F0BD19B
:1043500046EA0B020AE000BF002A09D445EA080534
:104360001AF80560002FF3D006EA0C020AF80520BF
:104370005D1C05EB0E0209FA05F0D6B200044FEA07
:1043800002620BD5002A15D446EA08061AF8062060
:10439000012F0BD142EA0B000AE000BF002A09D42A
:1043A00046EA08061AF80620002FF3D002EA0C00AD
:1043B0000AF80600013509FA05F2A01C1204C6B27B
:1043C0004FEA00620AD5002A14D446EA08061AF811
:1043D0000620012F0AD142EA0B0009E0002A09D485
:1043E00046EA08061AF80620002FF4D002EA0C006C
:1043F0000AF80600013509FA05F2E01C1204C4B2FD
:104400004FEA00620AD5002A3FF58CAF44EA08045F
:104410001AF80420012F7FF481AF09E0002A3FF54C
:1044200081AF44EA08041AF80420002F7FF476AF25
:1044300042EA0B0074E700BF049D1C1D059800288C
:104440003FF44AAF04EB0E0309FA04F4DDB2200492
:104450004FEA03620AD5002A14D445EA08051AF87F
:104460000520012F0AD142EA0B0009E0002A09D4F5
:1044700045EA08051AF80520002FF4D002EA0C00DE
:104480000AF805000598049D01283FF425AF581C43
:104490006204C5B24FEA00620AD5002A14D445EA84
:1044A00008051AF80520012F0AD142EA0B0009E09D
:1044B000002A09D445EA08051AF80520002FF4D08F
:1044C00002EA0C000AF805000598049D02283FF452
:1044D00003AF981CA204C3B24FEA00620AD5002AB7
:1044E0003FF5FAAE43EA08031AF80320012F7FF4E0
:1044F000EFAE09E0002A3FF5EFAE43EA08031AF8F1
:104500000320002F7FF4E4AE42EA0B00E2E600BF96
:10451000009939B1019840F24802014411F8201C79
:1045200004E000BF019840F248020399C2F2000281
:104530007144518008B0BDE8F08F00002DE9F041D2
:1045400082B01C460378DBB1DDF8208015460E46AC
:10455000471C00BFD8B231462A462346CDF800801A
:10456000FFF778FE17F8011C884204D117F8013BC9
:10457000002BEFD10021084602B0BDE8F08100BF5A
:104580000021084602B0BDE8F08100000279092A46
:1045900088BF704710B5DFE802F05B6B1B2711770F
:1045A00087410505C06801230268002908BF4FF054
:1045B000FF33D1180160BDE810407047C068002982
:1045C000027800F08580192A4AD9BDE8104070476A
:1045D000C0680029026800F089804CF6CC41C0F622
:1045E000CC418A42F1DC6BE0C4680029D4E90002C6
:1045F00000F08C80D0F1CC314CF6CC41C0F6CC41EF
:104600009141E2DB0A21A0FB010102EB820201EBF6
:104610004201C4E90001BDE810407047C0680029AC
:10462000D0E9003200F08280D3F1993149F6991136
:10463000C1F699119141C8D30A21A3FB011302EBE2
:10464000820203EB4202C0E90012BDE8104070474D
:10465000C068002990F9002000F092800C2AB4DC98
:1046600002EB820149000170BDE81040704700BFB5
:10467000C0680029B0F9002000F0908040F6CC41DD
:104680008A42A2DC09E000BFC0680029028800F06D
:10469000938041F699118A4297D802EB8201490032
:1046A0000180BDE810407047C0680029026800F032
:1046B000918049F69911C1F699118A423FF685AF6A
:1046C00002EB820149000160BDE81040704700BF65
:1046D000012A3FF47AAF49F69A11C1F69911A2FB6B
:1046E00001120270BDE81040704700BF012A3FF47C
:1046F0006CAF46F26761C6F2666182FB01129110EF
:1047000001EBD2710160BDE81040704780F00101FB
:1047100011433FF45AAF11460A220023FBF724FD50
:10472000C4E90001BDE81040704700BF83F00101FB
:1047300011433FF44AAF590841EAC27E1EEB5203CF
:104740004CF6CD4C43F10003CCF6CC4CA3FB0C4112
:1047500021F0030404EB9101591ABEEB0101A1FB06
:104760000CE44FF0CC3301FB03414FEA520262F1FB
:10477000000202FB0C11C0E900E1BDE810407047E7
:10478000012A3FF422AF67215143C1F3C03202EB4B
:1047900091210170BDE81040704700BF012A3FF42D
:1047A00014AF46F2676151438A1402EBD171018064
:1047B000BDE81040704700BF012A3FF406AF49F63C
:1047C0009A11C1F69911A2FB01120280BDE81040B6
:1047D000704700BF012A3FF4F8AE4CF6CD41CCF64D
:1047E000CC41A2FB0112D1080160BDE81040704726
:1047F0002DE9F04102790B2A88BFBDE8F081DFE89E
:1048000002F00733131F0733131F694B483F00BFE4
:10481000C268806812780378002908BF524299184C
:104820000170BDE8F08100BFC2688068126803684B
:10483000002908BF524299180160BDE8F08100BF0D
:10484000C26880680CCAD0E9007655424FF0000477
:104850009C4100291CBF1C461546791946EB0402F1
:10486000C0E90012BDE8F081C26880681288038840
:10487000002908BF524299180180BDE8F08100BFAD
:10488000C0680268531E98BF0123002918BF531C3B
:104890000360BDE8F08100BFD0E902600F46006808
:1048A000D6E90045FCF7D0F80B4600210246C4F2D9
:1048B0002401002000F05AFD02460B4620462946FE
:1048C000002F08BF83F00043FBF7A8FFC6E90001F3
:1048D000BDE8F081D0E902700D4604683868FCF745
:1048E000C4F8804620460E46FCF7AEF80B46002181
:1048F0000246C4F22401002000F038FD424633464F
:10490000002D08BF81F00041FBF788FFFCF7C0F8DD
:104910003860BDE8F081000070470000002070475B
:104920000FB47CB50C0009AD01D0611E00E0002180
:10493000CDE90001064B6A462946089800F074F953
:10494000002C02D0009A002111707CBC5DF814FB91
:1049500057530008490050EAC12018BF04204A0DEF
:1049600018BF40F0010040F2FF72B2EB515F08BF88
:1049700040F00200012808BF052070472DE9F041F2
:104980004F1E00EBC7010446D1E9000115461E4643
:1049900037F006020DD02A463346FCF7AFF97F1EEA
:1049A00004EBC703D3E90023FBF738FF37F0060217
:1049B000F1D1022F25D0042F13D0062F18BFBDE848
:1049C000F0812A463346FCF799F9D4E90A23FBF72C
:1049D00025FF2A463346FCF791F9D4E90823FBF773
:1049E0001DFF2A463346FCF789F9D4E90623FBF775
:1049F00015FF2A463346FCF781F9D4E90423FBF777
:104A00000DFF2A463346FCF779F9D4E90223FBF778
:104A100005FF2A463346FCF771F9D4E90023BDE8C7
:104A2000F041FBF7FBBE000000221346104601498F
:104A3000FBF79BBF0000F03FFBF7F0BE00221346E0
:104A400010461146FBF791BF40F2013200204FF0B3
:104A5000E041FCF7C5B90000024A00201107FCF74D
:104A6000BFB9000001FDFFFF02E008C8121F08C126
:104A7000002AFAD170477047002001E001C1121FDF
:104A8000002AFBD170470000014908607047000010
:104A9000000000202DE9FF5F82B00021DDE9043035
:104AA000020DDDF840B0034318D044F61050A2F2D6
:104AB000FF3242431514119801281FD0A5EB0B00BB
:104AC000401C5FEA000A4FF000064E4FDFF83891B5
:104AD000B046504615D5CAF1000413E011980124E0
:104AE0004AA3012801D16FEA0B010298119AC0E98B
:104AF0000031C0E9024206B0BDE8F09FCBF10000F2
:104B0000DFE704460021404A491842EB0450CDE952
:104B1000001012E0E00707D032463B4640464946C7
:104B2000FCF7ECF88046894632463B46104619466B
:104B3000FCF7E4F806460F466410002CEAD1DDE9E4
:104B40000401DDE90023BAF1000F06DAFCF7D6F81C
:104B500042464B46FCF7D2F805E0FBF706FF42461B
:104B60004B46FBF702FF04460E460022284BFCF79B
:104B700073F903D84FF0FF30014607E00022254BC0
:104B800020463146FBF74AFEFCF74DF9102409E0B8
:104B9000002C0ADB0A220023FBF7ACFF039B303218
:104BA0001A55641E50EA0102F2D1641C039AC4F142
:104BB00011031444119A012A03D0012208430DD194
:104BC0000AE0084304D000204FF0110B119072E767
:104BD000A3EB0B056D1E0DE05B4504DD4FF00002FD
:104BE00005F1010504E003DA4FF00002A5F101052B
:104BF000002AECD002981199C0E90231C0E90045C1
:104C000079E70000000014400000F03F3000000091
:104C10000000F0430000E03F30380A2801D20120B4
:104C200070470020704700002DE9FF4F95B09B466C
:104C30008946064600250FE2252877D1002427461D
:104C4000F84A0121059400E0044316F8013F203B97
:104C500001FA03F01042F7D130782A2811D06FF012
:104C60002F033078A0F13002092A16D8059A44F0B3
:104C7000020402EB820203EB42021044761C059010
:104C8000EFE759F8042B0592002A03DA504244F466
:104C90000054059044F00204761C30782E2816D17A
:104CA00016F8010F44F004042A280DD06FF02F02EB
:104CB0003078A0F13003092B09D807EB870302EB0A
:104CC0004303C718761CF3E759F8047B761C307849
:104CD0006C280FD006DC4C2817D068280DD06A2825
:104CE00014D104E0742810D07A280FD10DE044F4D8
:104CF00000140AE044F4801401E044F44014727893
:104D0000824202D104F58014761C761C3078662825
:104D10000BD013DC582877D009DC002875D0452843
:104D2000F6D04628F4D047281AD19DE118E0632830
:104D300035D0642879D0652812D195E1702873D0D8
:104D400008DC6728F1D069286FD06E280DD06F2855
:104D500006D1B5E073282CD0752875D0782874D08A
:104D60005A46179990476D1C75E1C4F3025002280A
:104D700009D003280DD0D9F8001004280DD00D60FB
:104D800009F1040967E1D9F80010EA17C1E90052F6
:104D9000F6E7D9F800100D80F2E70D70F0E719F88A
:104DA000041B8DF8001000208DF80100EA46012058
:104DB00003E059F804AB4FF0FF3061074FF00001FA
:104DC00002D40DE008F101018846B9420FDA8045AE
:104DD000F8DB1AF808100029F4D108E008F1010105
:104DE00088468142FADB1AF808100029F6D10598A6
:104DF0005B46A0EB080721463846179A00F094FA64
:104E0000284400EB080507E04DE029E10DE01AF821
:104E1000010B5A4617999047B8F10108F7D25B4643
:104E200021463846179A13E142E00A220092C4F361
:104E300002524FF0000A022A08D059F804CB032A84
:104E40004FEAEC710AD00DE029E02AE009F10701F0
:104E500021F00702F2E802C1914609E00FFA8CFC4A
:104E60004FEAEC71042A03D14FFA8CFC4FEAEC7143
:104E7000002907DA0A460021DCF1000C61EB02018F
:104E80002D2202E0220504D52B228DF804200122D8
:104E900003E0E20701D02022F7E7904659E00A211B
:104EA00002E010220DE010214FF0000A00910BE00B
:104EB00010224FF0000A44F004040827009203E097
:104EC00008224FF0000A0092C4F30252022A05D0D1
:104ED00059F804CB0021032A08D009E009F10701A1
:104EE00021F00702F2E802C1914605E01FFA8CFCAE
:104EF000042A01D10CF0FF0C4FF00008220728D53E
:104F0000702806D0009B83F0100353EA0A0305D0F3
:104F10000EE040228DF80420012208E05CEA010244
:104F200006D030228DF804208DF80500022290462C
:104F3000009B83F0080353EA0A030AD15CEA0102EA
:104F400001D1620705D530228DF804204FF0010809
:104F50007F1E582804D034A003900EA802900DE0C4
:104F600036A0F9E753466046009AFBF7C3FD844636
:104F70000398825C0298401E029002705CEA010075
:104F8000F0D1029806A9081A00F1200A600702D59C
:104F900024F4803400E00127574502DDA7EB0A0026
:104FA00000E0002000EB0A01009005984144401AFF
:104FB0000590E00306D45B462146179A059800F059
:104FC000B3F90544002706E001A85A46C05D1799C9
:104FD00090476D1C7F1C4745F6DBE0030CD55B4614
:104FE0002146179A059800F09FF9054404E0302007
:104FF0005A46179990476D1C0099481E0090002949
:10500000F5DC08E0029802995A460078491C0291A2
:10501000179990476D1CBAF10001AAF1010AF1DC61
:1050200065E100000928010030313233343536376C
:1050300038396162636465660000000030313233E4
:105040003435363738394142434445460000000084
:1050500000F058F90544761C307800287FF4ECAD58
:1050600019B02846BDE8F08F620700D4062709F181
:10507000070222F0070CFCE80223E14603F0004897
:105080005FEA080C02D00FF2702C0DE05FEA045CBE
:1050900002D50FF2682C07E05FEAC47C02D00FF261
:1050A000602C01E0AFF2700C4FF0FF3823F00043AA
:1050B000CDF850C065280CD006DC452809D046281C
:1050C0001DD047283DD13DE0662818D067287ED105
:1050D00038E00021112F01DB112000E0781CCDE920
:1050E000000106A90EA8FFF7D5FCDDE90F010E9A15
:1050F00003910021009207F1010A04914DE04FF065
:1051000000400097CDE9011006A90EA8FFF7C2FCE8
:10511000DDE90F0203920E9B11990022DDF80CA02D
:105120000093049211B9791C00EB010AB7EB0A0055
:1051300004D4C0F1FF3007F1010A0490AAEB070084
:10514000019044E0012F00DA01270021112F01DD39
:10515000112000E03846CDE9000106A90EA8FFF7AE
:1051600099FCDDE90F010E9A039100210491009250
:10517000BA4621070CD40399514500DA8A46BAF1A0
:10518000010F05DD009AAAF10101515C302908D018
:10519000B84202DA10F1040F06DA0121CDE901105C
:1051A00015E0AAF10101E9E7002805DC04990144B2
:1051B0000491AAEB000102E0411C514500DD8A4642
:1051C0000499401A401C01904FF0004002902007C3
:1051D00004D40198504501DBCDF8048000208DF8FF
:1051E0004F0002980DF14F07B0F1004F25D02B2052
:1051F0000E9002984FF0020800280CDA404202900C
:105200002D200E9007E00A210298FBF75DFC30315B
:10521000029007F8011DB8F10001A8F10108F2DCC5
:1052200002980028EFD1791E0E980870307800F0AF
:10523000200040F0450007F8020D12A8C01B00F145
:1052400007081498007800B1012000EB0A010198CA
:1052500001EBE07105984144401A401E0590E003BF
:1052600006D45B462146179A059800F05DF8054480
:105270001498007818B15A46179990476D1CE003AE
:1052800024D55B462146179A059800F04DF8054451
:105290001CE00498002807DBDDE90301884203DDF8
:1052A0000098405C179901E0179930205A469047C2
:1052B000049805F10105401C04900198401E0190DE
:1052C00004D12E205A46179990476D1CBAF100015F
:1052D000AAF1010ADDDC05E017F8010B5A4617991F
:1052E00090476D1CB8F10001A8F10108F4DC5B46A1
:1052F0002146179A0598ABE62D0000002B00000010
:10530000200000002DE9F041044600251E46174606
:10531000880404D405E039462020B0476D1C641E83
:10532000F9D52846BDE8F0812DE9F0410446002575
:105330001E469046C80301D5302700E02027880488
:1053400004D505E041463846B0476D1C641EF9D5CA
:105350002846BDE8F0814A68002A06D00A68531C36
:105360000B6010704868401E486070472DE9F04D92
:105370001D460C4694B0174621F0004123F000432F
:10538000002814BF4FF0010C4FF0000C0CEB440C44
:10539000FB4A0CEB02064FEA620C66452BD33E003B
:1053A00018BF012606EB45061644F64A964222D35C
:1053B000F54A53EA070C02D0944205D148B914B01B
:1053C00000201146BDE8F08D002808BF4FF0000C0A
:1053D00001D04FF0010C0CEB440212F5001F0AD86B
:1053E000002F14BF4FF0010C4FF0000C0CEB4502E6
:1053F00012F5001F07D914B03A462B462146BDE8E6
:10540000F04DFFF719BB0022DFF880A3002CB8BFD6
:10541000534526DADFF878C36345A8BF022220DAB5
:10542000DFF864C39C451CDCDFF868C30CEB235C2D
:10543000BCF1140F08DDCCF1340627FA06FC0CFA97
:1054400006F6BE420DD108E05FB9CCF1140623FA8E
:1054500006FC0CFA06F69E4203D10CF00102C2F1E2
:10546000020251EA000C19D1002D17DA002C18BFE6
:10547000022A01D0012A07D00220FFF705FB14B051
:10548000BDE8F04DFFF7D0BA0220FFF7FDFAFFF7B5
:10549000CBFA14B081F00041BDE8F08DB7F1000CFB
:1054A0006CD1534525D104F1804212F5801201BF21
:1054B00000280020B44914B008BFBDE8F08DB24800
:1054C000884207DC002DA1BF6046294614B0BDE824
:1054D000F08D07E0002DBFBF604685F0004114B09D
:1054E000BDE8F08DAC497944D1E9000114B0BDE8C4
:1054F000F08DDFF894C2634525D1002D1FDA19B174
:10550000514512D1D8B909E0002840F0F6829F4AEF
:10551000214614B062F31E01BDE8F08D0020214643
:1055200014B060F31E01BDE8F08D08DA14B0234614
:10553000BDE8F04D024600206146FBF716BA14B0F4
:105540002146BDE8F08D514518DAB5F1804F0DD0F8
:10555000A5F1005CBCF1FF5C10D1B4F1000C0DDBD7
:1055600014B06146BDE8F04D00F0F6BB234614B020
:105570000246BDE8F04D1946FBF7C0BB060024F01B
:10558000004C3BD1D9B1514533D1002C06DD002D63
:10559000A1BF0020514614B0BDE8F08D002C01DD04
:1055A000002D1BDB002C13DA002D11DB012A4FF03C
:1055B000000014BF7549794914B0BDE8F08D022A86
:1055C00018BF002C0AD0012A08D1002C06DA0AE004
:1055D000002CB8BF002D11DA012A04D0002014B02D
:1055E0000146BDE8F08D14B000204FF00041BDE849
:1055F000F08DA1F14050B0F17F601AD0012000EB96
:10560000E47050EA020421D05F4C521E4FF0000BB0
:10561000104304BF4FF0000B614C624883427DDDB4
:10562000614A6248934229DD884217DB002D2FDB57
:1056300041E0002C00DA4AB1022A0CBF01204FF0F1
:10564000FF3014B0BDE8F04DFBF7FEB90120FFF7C5
:105650001BFA14B0BDE8F04DFFF7F0B94A4A8A4290
:105660000CDC002D14DC0220FFF70EFAFFF7F4F932
:1056700061F31E0414B02146BDE8F08D814202DAC8
:10568000002D18DA04E0404B994220DD002D12DD98
:105690000220FFF7F9F9FFF7D7F905460E46002279
:1056A000534658462146FBF729FB14B066F31E010A
:1056B0002846BDE8F08D0220FFF7E6F9FFF7CCF9A8
:1056C0000A46214614B062F31E01BDE8F08D0022A7
:1056D00030466146FBF743F9064688466FF0010203
:1056E000FBF77EFB4FF05532314BFBF73BF932466F
:1056F0004346FBF703FB00222E4BFBF733F98A46A8
:1057000032464346029010461946FBF7F7FA5346D5
:10571000029AFBF7F3FA8246324600E054E0059124
:1057200043464FF0C0402449FBF7E8FACDE90C01AD
:10573000224A214B50460599FBF7E0FA8246019137
:105740001F4A204B30464146FBF7D8FA5246019B90
:10575000FBF705F982460B4602460991DDE90C018B
:10576000FBF75CF8DDE90C23002688463046FBF7A2
:10577000F6F85246099BFBF7F5F8024600F07EB9B1
:10578000FFFF1F00FFFF0F000000F03F0000F07F51
:105790000000404301FCFFFF460900000000F0FF4D
:1057A0000000F0BF0000E0410000F043FFFFEF3FCA
:1057B0005555D53F0000E03F4715F73FFE822B656A
:1057C00044DF5DF80BAE543E0020B1F5801F07DAD0
:1057D000352230466146FBF703FB06466FF0340086
:1057E00000EB2150A0F2FF300190C1F3130040F014
:1057F0007F6141F040510291FE498842D8BF0020AC
:1058000004DDFD498142C8BF012001DD0F9008E0A1
:1058100000200F900198401C01900298A0F5801084
:1058200002900299F548784405910F9900EBC10068
:105830001290D0E9002330460599FBF790F8CDE9A6
:105840000C011298D0E9002330460599FAF7E6FFDB
:1058500002460B460020EA49FBF787F80B46CDE9E4
:1058600008010246DDE90C01FBF748FA0A90E54819
:105870008A464FF0000878440299006810904FF073
:10588000005040EA61010F9801EB804000F50021D3
:1058900012981191D0E900231098FBF760F8324676
:1058A000059BFBF75FF842465346FBF727FADDE915
:1058B00010230646039140465146FBF71FFADDE9E7
:1058C0000C23FBF74FF83246039BFBF748F8DDE962
:1058D0000823FBF713FA03910A9A129053461046D5
:1058E0001946FBF70BFA06460246C7480B460291DB
:1058F00006217844FFF742F8029B32460591089052
:1059000010461946FBF7FAF9059B089AFBF7F6F9DA
:10591000064609915346404619460A9AFAF77EFF11
:10592000039B129AFBF7EAF93246099BFAF776FFD6
:10593000CDE908014246534610461946FBF7DEF909
:1059400002460B46029104900020B049FAF766FF28
:10595000DDE90823FAF762FF0E464246AB4B4046AC
:10596000FAF7FDFF029B049AFAF7F9FFDDE9082335
:10597000FAF7F8FF4246049102903346104651462A
:10598000FBF7BCF9CDE90C0153460A9A0499029839
:10599000FBF7B4F9824600913346424603991298C8
:1059A000FBF7ACF95246009BFAF738FF82460B46EC
:1059B00002460991DDE90C01FAF730FFDDE90C231D
:1059C000002688463046FAF7CAFF5246099BFAF786
:1059D000C9FFCDE90801434632464FF060408C498B
:1059E000FBF78CF982460491DDE90801894A884B6E
:1059F000FBF784F902910090434632468648874976
:105A0000FBF77CF9029B009AFAF708FF844B7B4472
:105A10000F9A03EBC203D3E90023FAF7FFFE0090CD
:105A200002910198FBF710F80E9003915046029BEB
:105A3000009A0499FAF7F2FE7A4A7A440F9B02EB35
:105A4000C3030993D3E90023FAF7E8FE039B0E9AF8
:105A5000FAF7E4FE88463046039B0E9AFAF77FFF7A
:105A6000099BD3E90023FAF77AFF5246049BFAF721
:105A700076FF029B009AFAF775FF024600200B465C
:105A8000029038462946FBF739F9824603912B46A6
:105A900038461946029AFAF762FF32464346FBF748
:105AA0002DF95246039BFAF7B9FE07468A4632465D
:105AB000434629460298FBF721F905460E463A4629
:105AC0005346FAF7ABFE584A8846914221DBA8EBD1
:105AD000020353EA000210D12A463346FAF73FFF89
